:1002000010C100003EC100003CC100003AC1000026
:1002100038C1000036C1000034C1000032C1000006
:1002200030C100002EC100002CC100002AC1000016
:1002300028C1000026C1000024C1000022C1000026
:1002400020C100001EC100001CC100000C945D0D07
:100250000C94570D0C94630D14C1000012C10000E2
:1002600010C100000EC100000CC100000AC1000056
:1002700008C1000006C100000C943B0D02C1000043
:1002800000C10000FEC00000FCC00000FAC0000079
:10029000F8C00000F6C00000F4C00000F2C000008A
:1002A000F0C00000EEC00000ECC00000EAC000009A
:1002B000E8C00000E6C00000E4C00000E2C00000AA
:1002C000E0C00000DEC00000DCC00000DAC00000BA
:1002D000D8C00000D6C00000D4C00000D2C00000CA
:1002E000D0C00000CEC00000CCC00000CAC00000DA
:1002F000C8C00000C6C00000C4C00000C2C00000EA
:10030000000000006410B71DC8206E3BAC30D92639
:100310009041DC76F4516B6B5861B24D3C710550E5
:100320002083B8ED44930FF0E8A3D6D68CB361CB0D
:10033000B0C2649BD4D2D38678E20AA01CF2BDBDC1
:10034000202000436F6D6D616E647320617661697A
:100350006C61626C65206172653A0074657374004B
:1003600076657273696F6E00726561645374726949
:100370006E670074696D656F757400636865636BA3
:1003800073756D0077726974654D756C7469007270
:1003900065736574006D6F646500736869667400E9
:1003A0007772697465546F00657261736553656334
:1003B000746F72006572617365436869700064757B
:1003C0006D700072656164417400585858000D0AE0
:1003D0000008200800636F6D6D616E64206E6F749D
:1003E00020666F756E6400223A20002200546F6F01
:1003F000206D616E7920617267756D656E74732012
:10040000746F207061727365004F4B003E20003A9C
:10041000200000000201040603000368656C700000
:10042000E00D11241FBECFEFCDBFDFE7DEBF80E3BD
:100430008093011088ED90EB84BF9093011024E726
:10044000A0ECB3E601C01D92AC3CB207E1F713E6A5
:10045000A0E0B0E6E8E1FBE202C005900D92A03C0E
:10046000B107D9F712E0C1E1D2E004C02197FE0143
:100470000E947513C031D107C9F70E94250E0C9454
:100480008A15BECE9FB7F894E0912A0BF0912B0B02
:100490008091260B2091C0733091C1734091C2733B
:1004A0005091C3739FBF80FF08C0CF018827892B5D
:1004B00021F42F5F3F4F4F4F5F4F0F01169407946A
:1004C000169407941694079416940794F0011694C2
:1004D0000794E00DF11D16940794102C1694011842
:1004E0001694010C169401181694010C1694011818
:1004F00016941694010C1124E019F109A8EEB3E04A
:100500000E94C2126E0F7F1F811D911D0895CF9210
:10051000DF92EF92FF92CF93DF936B017C01B2DF0A
:10052000EB01B0DF6C1B7D0B683E7340D0F381E0C4
:10053000C81AD108E108F108C851DC4FC114D10430
:10054000E104F10471F7DF91CF91FF90EF90DF901C
:10055000CF900895EF92FF920F931F93CF93DF9365
:100560008C017B01D0E0C0E0F701EC0FFD1F64912E
:10057000662361F0D801ED91FC910190F081E02DAE
:10058000C8010995892B11F02196EECFCE01DF919C
:10059000CF911F910F91FF90EF900895AF92BF926E
:1005A000CF92DF92EF92FF920F931F93CF93DF933F
:1005B0006C017B018B01040F151FEB015E01AE186E
:1005C000BF08C017D10759F06991D601ED91FC9190
:1005D0000190F081E02DC6010995892B79F7C501BD
:1005E000DF91CF911F910F91FF90EF90DF90CF900F
:1005F000BF90AF900895FC0151894289252F30E0CA
:10060000842F90E0821B930B541710F0CF9608951F
:1006100001970895FC0197858089981761F0A0895A
:10062000AE0FBF2FB11D53968C9190899F5F9F7322
:10063000908B90E008958FEF9FEF0895FC019785D0
:100640008089981731F08089E80FF11D838990E047
:1006500008958FEF9FEF0895FC0197852089892FDA
:1006600090E0805C9F4F821B91098F7399270895BA
:10067000FC010FB607FE04C0809111018823A9F088
:10068000A085B18514968C91149785FF0EC0918931
:100690008289981307C015968C9115978F7D1596B2
:1006A0008C930895E8940C94700D08950F931F9304
:1006B000CF93DF93EC018E8581608E8799898A893B
:1006C00098130BC0E885F985848185FF06C08E8567
:1006D00081FD0DC080E4848312C0062F19891F5F3D
:1006E0001F738A89811315C0CE01C2DFFACF8581BD
:1006F0008F77806490E49483E885F9858583E88525
:10070000F985628381E090E0DF91CF911F910F9195
:100710000895E989EC0FFD2FF11DED5AFF4F00837D
:10072000198B8E85E885F98581FF09C085818F77D2
:10073000806690E49483E885F9858583E3CF85819D
:100740008062FBCFCF93DF93EC018E85882359F035
:10075000E885F985858185FD03C0848186FD03C018
:10076000CE0186DFF5CFDF91CF91089587EC93E737
:10077000E9DFA7ECB3E71896ED91FC911997868114
:1007800016828581158280E4848350968C915097DF
:100790001F968C931F971E961C920895DC01189645
:1007A0008D919C91009739F0DC01ED91FC910680D0
:1007B000F781E02D09940895DC0118968D919C91A4
:1007C000009739F0DC01ED91FC910484F585E02D72
:1007D000099490E080E00895DC0118968D919C9139
:1007E000009739F0DC01ED91FC910284F385E02D56
:1007F000099490E080E00895DC0118968D919C9119
:10080000009739F0DC01ED91FC910084F185E02D39
:10081000099490E080E00895DC0118968D919C91F8
:10082000009739F0DC01ED91FC910190F081E02D11
:10083000099490E080E0089590E080E0089510929F
:1008400020044C9888E08A95F1F786B14C9A089577
:10085000CF93DF93F4DFD82FF2DFC82FD81719F02A
:10086000EEDFDC2FFACFDF91CF91089580936404FF
:100870009F779093840408958091480482FB882791
:1008800080F908950F931F93CF93DF93482F50E083
:10089000DA01A255BF498C918F3F09F4B5C08A0196
:1008A00009581F49E801E881D0E2ED9FF0011124C9
:1008B000FC5F611133C08683908189239A01205C9B
:1008C0003F49811111C0E9019881309749F1983071
:1008D00038F57096E90FF11D9FB7F894808161118A
:1008E00022C0877F80839FBFF90180818F3F09F4F9
:1008F0008BC0E8012881863058F58091E605982F55
:100900009770291312C0EC91E53008F0EE0F80913A
:10091000010AE095E823E093010A76C08583CCCFF5
:10092000F0E0E0E0D9CF8860DDCF887169F4213054
:1009300079F4EC91E53008F0EE0F8091410AE095F2
:10094000E823E093410A60C0883111F4263089F32E
:10095000475F5F49FA01808186FF3DC09091E805BD
:100960009770482F50E04F7B94171506A1F5EC9136
:100970008091920B8E2309F447C0D0E22D9F900105
:1009800011243C5FE83008F055C0205F3F4FE20F74
:10099000F32FF11D4FB7F8949091800B9E7F9093A9
:1009A000800B90918E0B90FFFCCF2091920B90E0EA
:1009B0008095909530E08223932328ED24BF809387
:1009C000920B8091800B81608093800B80818F7768
:1009D00080834FBF19C085FF15C090E1899FF0014A
:1009E0001124F75F91819770973071F4EC91853203
:1009F00080F48032B0F4883009F49CCF803109F45F
:100A000083CF02C08111F2CFDF91CF911F910F915F
:100A10000895803409F4ACCF8038B1F71092A00665
:100A2000F3CFC0E18C9FF0011124F75F81818F7EAD
:100A30008183EACFF0E0E0E0ADCF9FEF9093200418
:100A4000809324048091006090910160892B19F4B7
:100A500088E08A95F1F760E085E114DF809100601D
:100A600090910160892B19F488E08A95F1F761E093
:100A700085E108DF8091006090910160892B19F475
:100A800088E08A95F1F7109220040895CF93C62F3D
:100A9000EDDE8C2FCF91D1CF6AEA8AEA9AE0F6DFB9
:100AA00065E585E595E0F2CF1F93CF93DF93EC01E9
:100AB000162FF2DF60EA8AEA9AE0E8DF612FCE01C2
:100AC000DF91CF911F91E2CF1F93CF93DF93C82F78
:100AD000809100609091016081309105C9F40F9878
:100AE0001C2FD8E0612F661F6627661F84E0CADED0
:100AF000110F61E086E0C6DE60E086E0C3DED15023
:100B000089F70F9AC0930260DF91CF911F910895EA
:100B10000297C1F720E1C29FC0011124A7DE0F9800
:100B20000F9A0F98EFCF8FEFCFDFB6DF60E88AEA3A
:100B30009AE0ACDFB1DF60E18AEA9AE0A7CFFB017F
:100B400001900020E9F73197AF01461B570BDC01FC
:100B5000ED91FC910280F381E02D09948F929F9298
:100B6000AF92BF92EF92FF920F931F93CF93DF93B9
:100B7000CDB7DEB7A197CDBFDEBF7C01FA01CB01B7
:100B800019A2223008F42AE08E010F5D1F4F822E39
:100B9000912CB12CA12CBF01A50194010E94A0129F
:100BA000F901CA016A30ECF4605DD8016E938D01E1
:100BB000232B242B252B79F790E080E0109719F058
:100BC000BD01C701BCDFA196CDBFDEBFDF91CF91D4
:100BD0001F910F91FF90EF90BF90AF909F908F90DB
:100BE0000895695CE2CFCF92DF92EF92FF920F936C
:100BF0001F93CF93DF93EC016A017B01E881F981B8
:100C00000190F081E02D6DE209958C014427552774
:100C1000BA014C195D096E097F092AE0CE019EDFF9
:100C2000800F911FDF91CF911F910F91FF90EF9057
:100C3000DF90CF9008956CEB73E681CFCF93DF9375
:100C4000BC0187EC93E77BDFEC0187EC93E7F3DFF4
:100C50008C0F9D1FDF91CF91089589E091E6EEDF23
:100C600062DFF6DD80E291E6E9DF90E080E0089562
:100C700085E291E6E3DF4B9880E58A95F1F74B9AA0
:100C8000E7DD82E391E6DADF90E080E0089585E336
:100C900091E6D4DF90E080E00895CF93DF93AC013C
:100CA000990F660B770B2AE087EC93E757DFEC018F
:100CB00087EC93E7C0DF8C0F9D1FDF91CF910895E4
:100CC0000F931F93CF93DF93EC0144DC8C01CE0193
:100CD000B2DF800F911FDF91CF911F910F91089587
:100CE000CF93DF9363E473E08AE594E7E9DFC09193
:100CF000C573D091C673209789F060E473E08AE5EC
:100D000094E728DC6A817B818AE594E723DC8AE525
:100D100094E791DF0990D881C02DEDCF90E080E07D
:100D2000DF91CF9108956115710509F008CF90E02A
:100D300080E00895CF92DF92EF92FF92CF93DF93FE
:100D400081E491E67BDF8EE691E678DF87EC93E73E
:100D500083DC892BD9F387EC93E75CDCC82F87EC25
:100D600093E77ADC1816190624F487EC93E752DC33
:100D7000F6CFC93709F4AAC1CE3609F4A4C1CD30E3
:100D800029F788EB91E6E1CF77DD811123C064E696
:100D900070E080E090E0BBDB2DEC3CEC4CEC5DE3E4
:100DA000C701B6010E940D136B017C01219761F709
:100DB00060ED71E687EC93E7B6DF6FEF71E687ECE5
:100DC00093E7B1DF65EF71E687EC93E7ACDF89E984
:100DD00091E0A2C120E030E040E85FE3C701B60146
:100DE0000E947113181694F060ED71E687EC93E79A
:100DF0009ADF6EE072E687EC93E795DF65EF71E6C8
:100E000087EC93E790DF8BE991E086C11092640450
:100E10001092840414DD8F3F91F060ED71E687EC51
:100E200093E781DF6CE172E687EC93E77CDF65EFA7
:100E300071E687EC93E777DF8DE991E06DC18093F0
:100E400064048FE780938404FADC8F3F91F060EDB7
:100E500071E687EC93E767DF6CE172E687EC93E776
:100E600062DF65EF71E687EC93E75DDF8FE991E084
:100E700053C18EEF809364048AE480938404DFDCA2
:100E80008F3F91F060ED71E687EC93E74CDF6CE10A
:100E900072E687EC93E747DF65EF71E687EC93E74F
:100EA00042DF81EA91E038C180E392E6C7DE65E384
:100EB00072E687EC93E737DF80E806DE65E590E0D1
:100EC00080E0F2DD1092640410928404B8DC853571
:100ED00091F060ED71E687EC93E725DF63E472E65D
:100EE00087EC93E720DF65EF71E687EC93E71BDF84
:100EF00089EA91E011C160E080E090E1D5DD1092D7
:100F0000640480E1809384049ADC882391F060ED8E
:100F100071E687EC93E707DF67E572E687EC93E716
:100F200002DF65EF71E687EC93E7FDDE8CEA91E086
:100F3000F3C080E392E682DE6BE672E687EC93E72D
:100F4000F2DE81E8C1DD109264041092840477DC43
:100F50008F3F91F060ED71E687EC93E7E4DE6CE1A2
:100F600072E687EC93E7DFDE65EF71E687EC93E7E7
:100F7000DADE82EB91E0D0C06AEA80E090E894DDAE
:100F800010926404109284045ADC8A3A91F060ED65
:100F900071E687EC93E7C7DE6DE772E687EC93E7CF
:100FA000C2DE65EF71E687EC93E7BDDE85EB91E08D
:100FB000B3C01092640480E48093840440DC8F3FCB
:100FC00091F060ED71E687EC93E7ADDE6CE172E6DF
:100FD00087EC93E7A8DE65EF71E687EC93E7A3DE85
:100FE00087EB91E099C08FEF6FDD1092640410924F
:100FF000840425DC8F3F91F060ED71E687EC93E788
:1010000092DE6CE172E687EC93E78DDE65EF71E6C8
:1010100087EC93E788DE8AEB91E07EC060E090E0A9
:1010200080E042DD109264041092840408DC88237E
:1010300091F060ED71E687EC93E775DE67E572E6A7
:1010400087EC93E770DE65EF71E687EC93E76BDE84
:101050008DEB91E061C01092640480E4809384047D
:10106000EEDB882391F060ED71E687EC93E75BDEC1
:1010700067E572E687EC93E756DE65EF71E687EC8D
:1010800093E751DE8FEB91E047C080E392E6D6DD37
:1010900087EC93E7D0DD81E992E6D0DD83EA92E642
:1010A000CDDD41DDD5DB87EC93E7D6DA18161906DE
:1010B00024F487EC93E7AEDAF6CF8BEC92E6BEDD54
:1010C00090E080E02CC081ED92E6F9CF80EE92E6D0
:1010D000B5DD87EC93E7AFDD62EF72E687EC93E76F
:1010E00022DE21DDC9DBC8ECD0E0C12CD12C760199
:1010F000882309F449CE60ED71E687EC93E713DEAF
:1011000068ED71E687EC93E70EDE65EF71E687EC3C
:1011100093E709DE85E991E0C0DD8FEF9FEFDF9176
:10112000CF91FF90EF90DF90CF9008958091006075
:101130009091016060E073E6009759F060E173E61A
:101140008130910531F067E073E6029711F066E1B6
:1011500073E687EC93E7E7CD029764F0DB01129624
:10116000ED91FC9180818F7D853481F41092006037
:101170001092016067E373E687EC93E7D4DDD6DF76
:1011800087EC93E758DD90E080E00895863439F4E9
:1011900081E090E08093006090930160EBCF80E26B
:1011A00093E64CDDE7CFCF92DF92EF92FF920F9361
:1011B0001F93CF93DF93EC016B01088119816115B7
:1011C000710531F1CB010E94E9117C010115110576
:1011D00029F08A819B818E159F0590F4B7016F5F7E
:1011E0007F4FC8010E94A014009739F1888399832A
:1011F000EA82FB822C813D81232B11F4FC011082B9
:10120000EC82FD82B601888199810E94E2110BC0B7
:10121000C801012B11F00E941714188219821C8238
:101220001D821A821B82CE01DF91CF911F910F91F7
:10123000FF90EF90DF90CF9008958881998100977B
:1012400051F7EBCFCF92DF92EF92FF920F931F9364
:10125000CF93DF93CDB7DEB72697CDBFDEBF7B013F
:1012600019821A821B821C821D821E82BC01CE0141
:10127000019699DF0D811E8101151105A9F0C98024
:10128000DA8060E270E0C6010E946715009761F0A5
:101290009C012C193D0937FD07C02017310720F4A8
:1012A0002D833E83FC01108209811A8148E550E0BC
:1012B000B701C8010E9472157C01C8010E94171471
:1012C000C7012696CDBFDEBFDF91CF911F910F9151
:1012D000FF90EF90DF90CF900895AF92BF92CF92A2
:1012E000DF92EF92FF920F931F93CF93DF93CDB7CF
:1012F000DEB72697CDBFDEBF6C018B0186E090E0A4
:101300000E947B137C01FC01C282D382048315837B
:101310000091C5731091C67385ECC82E83E7D82E53
:1013200001151105F9F0F8016281738119821A82A1
:101330001B821C821D821E82CE01019634DF6981D0
:101340007A81F701828193817DDF5C0189819A81B5
:101350000E9417141A141B042CF46801F801008170
:101360001181DECFF601E082F182F7010083118363
:101370002696CDBFDEBFDF91CF911F910F91FF90D9
:10138000EF90DF90CF90BF90AF900895FC013C9616
:1013900028E5DF011D922A95E9F78C599F4FFC0142
:1013A0001082118208950F931F93CF93DF93CDB7CF
:1013B000DEB72697CDBFDEBF8C0119821A821B8251
:1013C0001C821D821E82CE010196EDDE4FEF5FEF83
:1013D000BA01C80108DC8D819E81892B21F0E98149
:1013E000FA81309721F41092C473E4ECF3E7808122
:1013F000882391F06FE074E0C801ACD84D815E8124
:1014000069817A81D801ED91FC910280F381E02D10
:10141000C8010995C8010FDC89819A810E941714BF
:10142000C801B4DF8FEF9FEFF8018287938726967C
:10143000CDBFDEBFDF91CF911F910F91089502972D
:1014400094F0FB014AE050E070E060E0828193811B
:101450009FD6882799276093CB737093CC73809322
:10146000CD739093CE7390E080E008954F925F9299
:101470006F927F928F929F92AF92BF92CF92DF92A4
:10148000EF92FF920F931F93CF93DF9303970CF488
:101490008BC0EB0140E150E070E060E08A819B810D
:1014A00077D62B0140E150E070E060E08C819D81B7
:1014B0006FD64B015C018FEF9FEFDC018093C2740C
:1014C0009093C374A093C474B093C574C12CD12CF1
:1014D00076018C149D04AE04BF0409F44DC0C6010E
:1014E000840D951DC3D9ABD94091C2745091C3747A
:1014F0006091C4747091C574E82FE427EF7094E094
:10150000E99FF0011124E050FD4F059115912591BF
:10151000349194E076956795579547959A95D1F7CC
:101520004027512762277327E82FE295EF70E427C1
:10153000EF7084E0E89FF0011124E050FD4F8591A9
:101540009591A591B49124E0769567955795479527
:101550002A95D1F784279527A627B7278093C274A9
:101560009093C374A093C474B093C5749FEFC91AC9
:10157000D90AE90AF90AADCF68E473E687EC93E784
:10158000D2DB4091C2745091C3746091C474709165
:10159000C574409550956095709520E187EC93E770
:1015A000DDDA87EC93E747DB90E080E0DF91CF91D5
:1015B0001F910F91FF90EF90DF90CF90BF90AF9071
:1015C0009F908F907F906F905F904F9008958F9233
:1015D0009F92AF92BF92CF92DF92EF92FF920F93C2
:1015E0001F93CF93DF9303970CF4B1C0EB0140E15D
:1015F00050E070E060E08A819B81CAD58B0140E1B8
:1016000050E070E060E08C819D81C2D57B0180EC70
:10161000C82E83E6D82ED0E0C0E0CE15DF0568F5F1
:101620008FB7F8948090C0739090C173A090C273EC
:10163000B090C3738FBF87EC93E70E940A0397FFB4
:1016400095C02FB7F8948091C0739091C173A09109
:10165000C273B091C3732FBF88199909AA09BB0936
:101660004091CB735091CC736091CD737091CE73D8
:1016700084179507A607B707F0F280910060909154
:10168000016001979801205C3346790100EC13E674
:10169000029798F501DA60E28AEA9AE0F7D900EC5D
:1016A00013E6C701800F911F9801205C33462C1769
:1016B0003D0750F4F801D1908F01D8D880EABDD908
:1016C0008D2DBBD9C5D8EDCF80E9B7D980E0B5D98C
:1016D00087EC93E70E942C03181619064CF587EC4B
:1016E00093E70E940A03F4CF61E070E080E090E0AD
:1016F0000E948702ADD80F5F1F4F6701C00ED11E39
:10170000C801805C93468C179D0710F7F801608133
:10171000C601BCD994D8F8016081861729F3C601A7
:10172000B5D961E070E080E090E00E948702F2CFDE
:1017300060E573E687EC93E7F6DAAE0170E060E00F
:101740002AE087EC93E70ADA87EC93E774DA90E013
:1017500080E0DF91CF911F910F91FF90EF90DF908C
:10176000CF90BF90AF909F908F900895F601819396
:101770006F01219652CF029754F0FB0140E150E0F7
:1017800070E060E08281938103D5862F9DD990E03F
:1017900080E008958F929F92AF92BF92CF92DF9296
:1017A000EF92FF92CF93DF9303970CF43FC0EB01CE
:1017B00040E150E070E060E08A819B81E9D46B01F8
:1017C0007C0140E150E070E060E08C819D81E0D4DC
:1017D0004B015C018091006090910160019702973C
:1017E00090F564E573E687EC93E79DDAB501A40113
:1017F00055276627772720E187EC93E7AFD96EE579
:1018000073E687EC93E78FDAB701A601662777279F
:1018100020E187EC93E7A2D987EC93E70CDA682DF7
:10182000C60142D915D880E291E608DA90E080E05E
:10183000DF91CF91FF90EF90DF90CF90BF90AF906E
:101840009F908F900895682DC60120D9EFCFCF9239
:10185000DF92EF92FF92CF93DF9302970CF435C0A3
:10186000FB0140E150E070E060E08281938190D420
:101870006B017C0164E673E687EC93E754DAB70109
:10188000A60155276627772720E187EC93E766D9DD
:1018900087EC93E7D0D9CC2DD0E08C2D869514D948
:1018A000FBD860E88AEA9AE0F1D8F6D8CE01982F02
:1018B00088279295990F907E60E388279072E6D8EA
:1018C0000E94280480E291E6B9D990E080E0DF919F
:1018D000CF91FF90EF90DF90CF9008958F929F92DD
:1018E000AF92BF92CF92DF92EF92FF920F931F932E
:1018F000CF93DF9303970CF449C0EB0140E150E034
:1019000070E060E08A819B8143D46B017C0140E1FF
:1019100050E070E060E08C819D813AD44B015C0125
:101920008C0C9D1CAE1CBF1CC814D904EA04FB041B
:1019300059F1D701C6012EE0B695A79597958795E1
:101940002A95D1F78C019D01112722273327409139
:10195000026050E070E060E00417150726073707C3
:1019600011F08068B1D8C6019F730E9436040E94AE
:101970001F04682F87EC93E70E9456038FEFC81A65
:10198000D80AE80AF80AD0CF0E94B60390E080E0B7
:10199000DF91CF911F910F91FF90EF90DF90CF904B
:1019A000BF90AF909F908F9008950297C4F0FB0175
:1019B00040E150E070E060E082819381E9D3CB01A7
:1019C0000E9436040E941F04482F50E070E060E03F
:1019D00020E187EC93E7C2D887EC93E72CD990E01D
:1019E00080E00895EF92FF920F931F93CF93DF93C0
:1019F00082309105BCF1EB017C0140E150E070E0E8
:101A000060E08A819B81C4D38B0182E0E816F104F7
:101A100001F140E150E070E060E08C819D81B8D33D
:101A2000EB012097E1F0C8010E9436040E941F04D8
:101A3000F82E082E000C990B0E945815892B61F086
:101A400021976F2D87EC93E70E9456030F5F1F4F7E
:101A5000E8CFC0E5D0E0E5CFD0E0C0E0F7CF87EC3D
:101A600093E7E9D890E080E0DF91CF911F910F914B
:101A7000FF90EF900895EF93FF93E0ECF3E78F93DF
:101A80008FB78F9380818F5F808381818F4F818318
:101A900082818F4F828383818F4F838381E0809304
:101AA000260B8F918FBF8F91FF91EF911895EF9338
:101AB000FF93F898E7ECF3E70BC0EF93FF93F898E8
:101AC000E7ECF3E734C0EF93FF93E7ECF3E75FC095
:101AD0002F932FB72F938F939F93AF93BF936894B8
:101AE000CF93DF9320E0C085D8E09289DF01A90F72
:101AF000B21FAD5ABF4F8C9120E42C838A839F5F25
:101B00009F738D812189291302C08F7D8D83928BD4
:101B1000DF91CF9116F00C945503BF91AF919F9137
:101B20008F912F912FBF2F91FF91EF9118952F93A8
:101B30002FB72F933F938F939F93CF93DF93C085BE
:101B4000D8E02E812F7E2E83898198818674880F1C
:101B50003685382B82FD0DC0C78581E08C0F8F73D1
:101B60002089281791F0CE0FDF2F20E0D21F9B8B0A
:101B700087873687DF91CF919F918F913F912F91EA
:101B80002FBF2F91FF91EF9118953064F2CF8F9373
:101B90008FB78F939F93CF93DF93C085D8E09D81BC
:101BA00088818C8187FDFCCF9F7B90689D83DF912E
:101BB000CF919F918F918FBF8F91FF91EF9118954A
:101BC000E7ECF3E71282138288EE93E0A0E0B0E046
:101BD00084839583A683B78329EE30E620833183FF
:101BE00020E038E02087318722E134E02287338704
:101BF00022E0248715861686EAE5F4E7128213822E
:101C000084839583A683B7838BEF90E6808391834B
:101C1000108611861286138682EF91E18093C0743C
:101C20009093C174CF01B2DB60E776E08BE194E082
:101C300054DB8FEF9FEFDC018093C2749093C374E9
:101C4000A093C474B093C5740895CF93DF93CDB7B8
:101C5000DEB76697CDBFDEBF88ED94E284BF909378
:101C6000680021E02093030A8EEF8093260A809378
:101C7000270A9BE09093000A32E03093E605209318
:101C8000430A8093660A8093670A9093400A909370
:101C9000E705E0E0FBE087E09EEF25E0E0323BE097
:101CA000F30721F081839487158620837096E035B1
:101CB000ABE0FA0799F78FEF9FE08093AA0B909320
:101CC000AB0B30E83093820B1092810B8BEF93E0DB
:101CD0008093AE0B9093AF0B81E78093800BE0E095
:101CE000F6E085E082839EE0958390E6938380838F
:101CF00050E4508791E0928762E062878091A00073
:101D0000887F85608093A0008091A200887F856095
:101D10008093A200EFEDFEE2E0932C0BF0932D0BED
:101D20009093250B1092210B83E08093200B7894E5
:101D30008FEF8093800480936004109220044C9A6B
:101D40004D9A4B9A48980E980C980F9A40E1409300
:101D5000410420E22093410488E080934104909361
:101D600041049FB7F89460934204809151048860C5
:101D7000809351049FBF9FB7F89484E080934204FE
:101D8000809152048860809352049FBF5093010455
:101D900040930104309301049FB7F8942093020408
:101DA00080911504877F809315049FBF8091026006
:101DB0000E9464058091D57380FD0E94B6036FB7C1
:101DC000F894E091CF73F091D073168233E03783AB
:101DD00081E493E080879187148680E8858380EC96
:101DE00086832091D4737091D3738091D173909135
:101DF000D273FC01239FE00DF11D112445915491F4
:101E0000271708F03FC0252F30E0573380F4F90141
:101E1000E255FF49A081AF3F51F029583F49F901F0
:101E2000308120E2329FF0011124FC5FA183E1E0C8
:101E3000E50F2E2F30E0E73328F5F901E255FF4991
:101E400010811F3FF9F0F901E958FF49A081E0E254
:101E5000AE9FD0011124BC5F205C3F49F901008195
:101E6000F0E0E0E0083030F49D01205F3F4FF901E1
:101E7000E00FF11D3FB7F89412961C932081286063
:101E800020833FBFFC0123E0729FE00DF11D112470
:101E9000319625913491F901FF27EE51FA4F908147
:101EA000832F80958923842B80836FBF85E793E6FA
:101EB0000E941E0681E893E60E941E0681E993E6D1
:101EC0000E941E0687EC93E780936274909363747C
:101ED0004B9830E53A95F1F74B9A0E94280465ED4E
:101EE0007CE083EC93E0F9D96EE67CE08EEB93E046
:101EF000F4D96DE276E084EB93E0EFD967E27CE021
:101F000088EA93E0EAD96AEC7BE080EA93E0E5D9DD
:101F10006BEB7BE08AE993E0E0D96CEA78E085E955
:101F200093E0DBD968E376E08FE893E0D6D967EEFB
:101F30007AE084E893E0D1D966E37AE08BE793E036
:101F4000CCD96FE17AE083E793E0C7D962EF7CE018
:101F500088E693E0C2D967E476E080E693E0BDD9F5
:101F60006AE976E08BE593E0B8D960EA73E687EC3E
:101F700093E70E949306DAD88DEA93E60E941E0644
:101F800083EB93E60E941E0694E1D92E8E010F5F2B
:101F90001F4F8AE594E70E94EC038D30910509F408
:101FA0006CC05CF50097A9F30CF58F3F980789F397
:101FB0002091BE743091BF74A9014F5F5F4F409371
:101FC000BE745093BF74265A3B48D9011C968C931B
:101FD000682F8AE594E70E940C048091BE7490916A
:101FE000BF74873591050CF04CC0D3CF8830910574
:101FF000F1F08A30910569F2DBCF8531910599F1D5
:1020000084F482319105A1F66EEC73E08AE594E7E1
:102010000E94AA0266E674E78AE594E70E949306A6
:10202000B8CF8B33910549F18F37910509F680912F
:10203000BE749091BF74181619060CF0AACF61ED0A
:1020400073E08AE594E70E94AA028091BE749091A1
:10205000BF7401978093BE749093BF74865A9B4857
:10206000FC01148696CF6AEC73E08AE594E70E943F
:1020700060068AE594E78AD98CCF8AE594E70E94C6
:102080001B06D801ED2D1D92EA95E9F71092BD745B
:102090001D8A1E8AE091C074F091C174AE014B5E3E
:1020A0005F4F6AEB73E686E694E70995009781F443
:1020B00069E074E08AE594E70E9460068AE594E7A7
:1020C00065D96CE074E08AE594E70E94AA0261CFCA
:1020D00089839A837E01B3E0EB0EF11CAA24A394BA
:1020E000B12CE091C074F091C174AE014B5E5F4FB2
:1020F0006AEB73E690E080E00995009771F0EFEFEE
:10210000AE1ABE0AD7018D939D937D01BAE0AB163E
:10211000B10439F76DEE73E037C010926474109219
:102120006574E090C573F090C673E114F104C1F0DA
:1021300069817A81F7018281938184D8892B61F446
:10214000D7011496ED91FC91B801C50109958093D2
:10215000647490936574B2CFF701E080F180E5CFAD
:102160006BEE73E08AE594E70E94AA0269817A81A6
:102170008AE594E70E94930667EE73E08AE594E7A8
:102180000E94AA0265ED73E08AE594E70CD999CF25
:10219000B0E0A0E0EDECF0E100C25C016B017A017F
:1021A0006115710519F0FB0180839183E114F1043D
:1021B00051F0C7010297839730F040E030E020E013
:1021C00090E071C05E01E5012196F5011081812F3B
:1021D00090E0F0D0892BB1F71D3201F52196F50181
:1021E000118101E0E114F10409F4D7C0F0E1EF1628
:1021F000F10409F081C0103359F488818F7D88354E
:1022000009F075C0198122960260F0E1EF2EF12CE1
:10221000812C912CA12C88E0B82E8AC01B3221F48D
:10222000E5012296F501118100E0DCCFEAE0EE162F
:10223000F10409F4B8C0F0E1EF16F10409F06CC044
:10224000E7CF78E0E72EF12C812C912CA12C60E1D6
:10225000B62E6EC03FE9310F3A3128F439EA332EF9
:102260007EC021E097C0302F3170C114D10431F00D
:10227000222301F12197F601C083D18327FF20C0DB
:1022800060E070E080E090E8311104C06FEF7FEF14
:102290008FEF9FE722E230E02093C6743093C7743B
:1022A000462F372F282F642F732F822FCDB7DEB7FD
:1022B000E1E18CC101FF04C02297F601C083D18304
:1022C000332341F090958095709561957F4F8F4FA6
:1022D0009F4FE6CF97FFE4CF82E290E08093C674F1
:1022E0009093C7746FEF7FEF8FEF9FE7D9CF10E325
:1022F000E114F10409F4A5CF28E0E216F10409F491
:10230000A3CF0CF093CF812C912CA12CE0E4BE2E16
:1023100082E0E816F10461F060E070E080E090E8AF
:1023200097010F2C000C440B550B0AD149015A019F
:1023300020E060E070E0CB0127010F2C000C660864
:102340007708FE0150ED352E310E39E0331540F49B
:102350003FEB310F3A3108F07DCF49EC342E310E8E
:102360003E141F040CF07FCF27FD14C0861697067D
:10237000A806B90670F0A3019201D3D0630D711DB8
:10238000811D911D61307105810520E8920708F4D7
:1023900068CF2FEF21961081D4CF103309F42DCFC1
:1023A0002AE0E22EF12C9CEC892E982CA82C9CE0A3
:1023B000B92EBECF91113DC0803219F089508550A1
:1023C000D0F70895FB01DC0105900D920020E1F7A4
:1023D0000895FC0105900020E9F7809590958E0FF7
:1023E0009F1F0895FA01A191B081009719F41097E9
:1023F000E1F0CD01DC01CD010D90002011F4C00110
:1024000013C0FB012191222319F02015D9F7F3CF36
:10241000FB012191201519F41E92119606C022236A
:10242000C1F70D900020A1F7D001FA01A193B0836C
:102430000895992788270895990F0008550FAA0B2A
:10244000E0E8FEEF16161706E807F907C0F01216C7
:102450001306E407F50798F0621B730B840B950BCA
:1024600039F40A2661F0232B242B252B21F408951F
:102470000A2609F4A140A6958FEF811D811D0895BC
:1024800097F99F6780E870E060E008959FEF80EC27
:10249000089500240A9416161706180609060895CA
:1024A00000240A9412161306140605060895092E30
:1024B0000394000C11F4882352F0BB0F40F4BF2B9F
:1024C00011F460FF04C06F5F7F4F8F4F9F4F0895DF
:1024D00057FD9058440F551F59F05F3F71F04795D5
:1024E000880F97FB991F61F09F3F79F087950895BA
:1024F000121613061406551FF2CF4695F1DF08C0D9
:10250000161617061806991FF1CF869571056105F5
:1025100008940895E894BB2766277727CB0197F99D
:102520000895DB018F939F932DD0BF91AF91A29F10
:10253000800D911DA39F900DB29F900D11240895C1
:10254000A1E21A2EAA1BBB1BFD010DC0AA1FBB1FB7
:10255000EE1FFF1FA217B307E407F50720F0A21B29
:10256000B30BE40BF50B661F771F881F991F1A9496
:1025700069F760957095809590959B01AC01BD01C0
:10258000CF0108953AD0A59F900DB49F900DA49FC0
:10259000800D911D112408952F923F924F925F92CA
:1025A0006F927F928F929F92AF92BF92CF92DF9263
:1025B000EF92FF920F931F93CF93DF93CDB7DEB7C8
:1025C000CA1BDB0BCDBFDEBF09942A883988488837
:1025D0005F846E847D848C849B84AA84B984C8843F
:1025E000DF80EE80FD800C811B81AA81B981CE0F36
:1025F000D11DCDBFDEBFED010895A29FB001B39FF5
:10260000C001A39F700D811D1124911DB29F700DFB
:10261000811D1124911D08955058BB27AA270ED063
:1026200046CF37DF30F03CDF20F031F49F3F11F42C
:102630001EF42CCF0EF4E095E7FB22CFE92F48DF04
:1026400080F3BA17620773078407950718F071F4CF
:102650009EF560CF0EF4E0950B2EBA2FA02D0B0146
:10266000B90190010C01CA01A0011124FF27591BD7
:1026700099F0593F50F4503E68F11A16F040A22FDD
:10268000232F342F4427585FF3CF4695379527954E
:10269000A795F0405395C9F77EF41F16BA0B620B4D
:1026A000730B840BBAF09150A1F0FF0FBB1F661F94
:1026B000771F881FC2F70EC0BA0F621F731F841FD7
:1026C00048F4879577956795B795F7959E3F08F0FD
:1026D000B3CF9395880F08F09927EE0F97958795BC
:1026E0000895AADE08F48FEF0895EE0FFF1F0590FE
:1026F000F491E02D09940F931F93CF93DF938230D1
:10270000910510F482E090E0E091CA74F091CB74EE
:1027100030E020E0B0E0A0E0309799F421153105D9
:1027200009F44AC0281B390B24303105D8F58A81B9
:102730009B816115710589F1FB0182839383FE0101
:1027400011C0408151810281138148175907E0F07F
:102750004817590799F4109761F012960C93129745
:1027600013961C933296CF01DF91CF911F910F9159
:1027700008950093CA741093CB74F4CF21153105DA
:1027800051F04217530738F0A901DB019A01BD014E
:10279000DF01F801C1CFEF01F9CF8093CA749093A4
:1027A000CB74CDCFFE01E20FF31F819391932250A2
:1027B000310928833983D7CF2091C8743091C974E7
:1027C000232B41F420910560309106602093C8745A
:1027D0003093C97420910360309104602115310554
:1027E00041F42DB73EB74091076050910860241B1B
:1027F000350BE091C874F091C974E217F307A0F4A7
:102800002E1B3F0B2817390778F0AC014E5F5F4F46
:102810002417350748F04E0F5F1F4093C87450933C
:10282000C974819391939FCFF0E0E0E09CCFCF9368
:10283000DF930097E9F0FC01329712821382A09196
:10284000CA74B091CB74ED0130E020E01097A1F490
:1028500020813181820F931F2091C8743091C974F7
:102860002817390709F061C0E093C874F093C97460
:10287000DF91CF910895EA01CE17DF07E8F54A818D
:102880005B819E0141155105B1F7E901EA83FB83A4
:1028900049915991C40FD51FEC17FD0761F4808150
:1028A00091810296840F951FE90188839983828123
:1028B00093818A839B83F0E0E0E012968D919C9156
:1028C00013970097B9F52D913C911197CD01029680
:1028D000820F931F2091C8743091C974281739074B
:1028E00039F6309751F51092CA741092CB74A093B8
:1028F000C874B093C974BCCFC283D3834081518163
:10290000840F951FC817D90761F44E5F5F4F888108
:102910009981480F591F408351838A819B8182830B
:1029200093832115310509F0B0CFE093CA74F09379
:10293000CB749ECFFD01DC01C0CF12821382D7CFB2
:10294000B0E0A0E0E5EAF4E129CE8C01009741F483
:10295000CB01D1DE8C01C801CDB7DEB7E0E137CEC7
:10296000FC01E60FF71F9C0122503109E217F30723
:1029700008F499C0D901CD91DC911197C617D707FA
:1029800090F0C530D10538F3CE010497861797072C
:1029900010F3C61BD70B2297C193D1936D937C93F1
:1029A000CF0145DFD8CF5B01AC1ABD0A4C018C0EBC
:1029B0009D1EA091CA74B091CB74512C412CF12C66
:1029C000E12C109731F58091C8749091C9748815E5
:1029D000990509F05CC04616570608F058C080916A
:1029E000036090910460009741F48DB79EB74091C9
:1029F000076050910860841B950BE817F90708F0F1
:102A000052C0E093C874F093C974F9016083718374
:102A1000A2CF8D919C91119712966C90129713965C
:102A20007C901397A815B90559F56C0142E0C40EC6
:102A3000D11CCA14DB0420F1AC014A195B09DA018C
:102A40001296159780F06282738240835183D90178
:102A50006D937C93E114F10471F0D7011296ED931C
:102A6000FC93139778CF22968C0F9D1FF9018083DA
:102A70009183F301EFCFE093CA74F093CB746BCFE3
:102A80004816590608F42C017D01D3019ACFCB01D9
:102A900032DE7C01009739F0AE01B8010FD0C801D9
:102AA000C6DE870158CF10E000E055CF803209F034
:102AB0009111BFCC80528F55E0F70895FB01DC01E6
:102AC00002C001900D9241505040D8F70895FC018A
:102AD0008191861721F08823D9F799270895319796
:102AE000CF010895FB01DC014150504088F08D91E9
:102AF00081341CF08B350CF4805E619161341CF0E4
:102B00006B350CF4605E861B611171F3990B0895AF
:082B1000881BFCCFF894FFCFF5
:102B180001007F0000CC748000000000004050607D
:102B280070000000000000000022230000000000E8
:102B3800000000000000008000000000000000000D
:102B48000000000000202100000024000000000018
:102B58000001020304050607000102030405060735
:102B68000001020304050607000102030405060725
:102B78000001020304050607000102030405000121
:102B8800020304050607060000000000000000011B
:102B98000101010101010102020202020202020313
:102BA80003030303030303040404040404040405E3
:102BB80005050505050606060606060606050102BC
:102BC80004081020408001020408102040800102FF
:102BD80004081020408001020408102040800102EF
:102BE8000408102040800102040810200102040893
:102BF8001020408040000000005603CE02FB02A2D5
:102C0800032C030A031E03000000000C04CE021C60
:102C180004CE03FC03EC03DC035374617274696E25
:102C28006720636869702065726173652E2E2E00B7
:102C3800446F6E6500526573657474696E672E2EF5
:102C48002E004F4B0047544350322D302E302E3239
:102C5800005465737420737569746520666F7220FB
:102C68006E65776C7920617373656D626C6564203D
:102C7800666C61736820626F6172647321005468C6
:102C880069732077696C6C20657261736520616E69
:102C9800792073746F72656420646174612E2041B9
:102CA800726520796F75207375726520796F75204C
:102CB8007769736820746F20636F6E74696E7565C9
:102CC8003F2028792F6E2900506C65617365206557
:102CD8006E74657220277927206F7220276E27006F
:102CE8004641494C202D20006469676974616C5223
:102CF80065616428526561647950696E29203D3D9B
:102D0800204C4F5700206F6E206C696E6520007252
:102D18006561647954696D65203C203230007265C4
:102D280061647954696D65203E2031007265616483
:102D38005F646174612829203D3D20307846460053
:102D480050415353000957726974652F7265616465
:102D58003A2000726561645F646174612829203DCE
:102D68003D203078353500726561645F6461746157
:102D78002829203D3D2030783030000953686966A5
:102D8800742072656769737465723A2000726561B0
:102D9800645F646174612829203D3D203078414199
:102DA80000416C6C20746573747320706173736573
:102DB800642E00436C65616E696E672075702077BC
:102DC800697468206F6E65206C617374206368692C
:102DD800702065726173652E2E2E00446F6E65211A
:102DE80000546573742063616E63656C65642E00BE
:102DF8005374617274696E672074657374732E2ED0
:102E08002E0009436869702065726173653A200075
:102E1800454550524F4D004641535442414E4B2D6B
:102E2800464C41534800554E444546494E4544009A
:102E3800556E6B6E6F776E206D6F6465207370656D
:102E48006369666965640043757272656E74206DA6
:102E58006F6465206973200043524333323A20007F
:102E680041434B0057726974696E672024002074CF
:102E78006F20240045726173696E672073656374FF
:102E88006F7220240048656C6C6F20776F726C64D9
:102E9800004361727420666C6173686572205634F1
:102EA8000041565236344441363420706F727400F3
:102EB8005374617274696E6720696E2000206D6FAB
:102EC8006465005265616479210020090D0A0000DB
:0400000300000200F7
:00000001FF
